{
  "_format": "hh-sol-artifact-1",
  "contractName": "Voting",
  "sourceName": "contracts/Voting.sol",
  "abi": [
    {
      "inputs": [
        {
          "internalType": "string[]",
          "name": "_candidates",
          "type": "string[]"
        },
        {
          "internalType": "uint256",
          "name": "_durationMinutes",
          "type": "uint256"
        },
        {
          "internalType": "bytes32",
          "name": "_merkleRoot",
          "type": "bytes32"
        }
      ],
      "stateMutability": "nonpayable",
      "type": "constructor"
    },
    {
      "inputs": [
        {
          "internalType": "uint256",
          "name": "",
          "type": "uint256"
        }
      ],
      "name": "candidates",
      "outputs": [
        {
          "internalType": "string",
          "name": "",
          "type": "string"
        }
      ],
      "stateMutability": "view",
      "type": "function"
    },
    {
      "inputs": [],
      "name": "deadline",
      "outputs": [
        {
          "internalType": "uint256",
          "name": "",
          "type": "uint256"
        }
      ],
      "stateMutability": "view",
      "type": "function"
    },
    {
      "inputs": [],
      "name": "getCandidates",
      "outputs": [
        {
          "internalType": "string[]",
          "name": "",
          "type": "string[]"
        }
      ],
      "stateMutability": "view",
      "type": "function"
    },
    {
      "inputs": [],
      "name": "government",
      "outputs": [
        {
          "internalType": "address",
          "name": "",
          "type": "address"
        }
      ],
      "stateMutability": "view",
      "type": "function"
    },
    {
      "inputs": [
        {
          "internalType": "address",
          "name": "",
          "type": "address"
        }
      ],
      "name": "hasVoted",
      "outputs": [
        {
          "internalType": "bool",
          "name": "",
          "type": "bool"
        }
      ],
      "stateMutability": "view",
      "type": "function"
    },
    {
      "inputs": [
        {
          "internalType": "address",
          "name": "_addr",
          "type": "address"
        }
      ],
      "name": "hasVotedStatus",
      "outputs": [
        {
          "internalType": "bool",
          "name": "",
          "type": "bool"
        }
      ],
      "stateMutability": "view",
      "type": "function"
    },
    {
      "inputs": [
        {
          "internalType": "address",
          "name": "_addr",
          "type": "address"
        }
      ],
      "name": "isGov",
      "outputs": [
        {
          "internalType": "bool",
          "name": "",
          "type": "bool"
        }
      ],
      "stateMutability": "view",
      "type": "function"
    },
    {
      "inputs": [],
      "name": "merkleRoot",
      "outputs": [
        {
          "internalType": "bytes32",
          "name": "",
          "type": "bytes32"
        }
      ],
      "stateMutability": "view",
      "type": "function"
    },
    {
      "inputs": [],
      "name": "totalVoters",
      "outputs": [
        {
          "internalType": "uint256",
          "name": "",
          "type": "uint256"
        }
      ],
      "stateMutability": "view",
      "type": "function"
    },
    {
      "inputs": [
        {
          "internalType": "string",
          "name": "",
          "type": "string"
        }
      ],
      "name": "totalVotes",
      "outputs": [
        {
          "internalType": "uint256",
          "name": "",
          "type": "uint256"
        }
      ],
      "stateMutability": "view",
      "type": "function"
    },
    {
      "inputs": [
        {
          "internalType": "string",
          "name": "_candidate",
          "type": "string"
        },
        {
          "internalType": "bytes32[]",
          "name": "_merkleProof",
          "type": "bytes32[]"
        }
      ],
      "name": "vote",
      "outputs": [],
      "stateMutability": "nonpayable",
      "type": "function"
    }
  ],
  "bytecode": "0x60806040523480156200001157600080fd5b5060405162001a5d38038062001a5d8339818101604052810190620000379190620004b4565b336000806101000a81548173ffffffffffffffffffffffffffffffffffffffff021916908373ffffffffffffffffffffffffffffffffffffffff16021790555082600190805190602001906200008f929190620000c2565b50603c826200009f91906200055e565b42620000ac9190620005a9565b600281905550806003819055505050506200090c565b8280548282559060005260206000209081019282156200010f579160200282015b828111156200010e578251829081620000fd919062000825565b5091602001919060010190620000e3565b5b5090506200011e919062000122565b5090565b5b808211156200014657600081816200013c91906200014a565b5060010162000123565b5090565b50805462000158906200061e565b6000825580601f106200016c57506200018d565b601f0160209004906000526020600020908101906200018c919062000190565b5b50565b5b80821115620001ab57600081600090555060010162000191565b5090565b6000604051905090565b600080fd5b600080fd5b600080fd5b6000601f19601f8301169050919050565b7f4e487b7100000000000000000000000000000000000000000000000000000000600052604160045260246000fd5b6200021382620001c8565b810181811067ffffffffffffffff82111715620002355762000234620001d9565b5b80604052505050565b60006200024a620001af565b905062000258828262000208565b919050565b600067ffffffffffffffff8211156200027b576200027a620001d9565b5b602082029050602081019050919050565b600080fd5b600080fd5b600067ffffffffffffffff821115620002b457620002b3620001d9565b5b620002bf82620001c8565b9050602081019050919050565b60005b83811015620002ec578082015181840152602081019050620002cf565b60008484015250505050565b60006200030f620003098462000296565b6200023e565b9050828152602081018484840111156200032e576200032d62000291565b5b6200033b848285620002cc565b509392505050565b600082601f8301126200035b576200035a620001c3565b5b81516200036d848260208601620002f8565b91505092915050565b60006200038d62000387846200025d565b6200023e565b90508083825260208201905060208402830185811115620003b357620003b26200028c565b5b835b818110156200040157805167ffffffffffffffff811115620003dc57620003db620001c3565b5b808601620003eb898262000343565b85526020850194505050602081019050620003b5565b5050509392505050565b600082601f830112620004235762000422620001c3565b5b81516200043584826020860162000376565b91505092915050565b6000819050919050565b62000453816200043e565b81146200045f57600080fd5b50565b600081519050620004738162000448565b92915050565b6000819050919050565b6200048e8162000479565b81146200049a57600080fd5b50565b600081519050620004ae8162000483565b92915050565b600080600060608486031215620004d057620004cf620001b9565b5b600084015167ffffffffffffffff811115620004f157620004f0620001be565b5b620004ff868287016200040b565b9350506020620005128682870162000462565b925050604062000525868287016200049d565b9150509250925092565b7f4e487b7100000000000000000000000000000000000000000000000000000000600052601160045260246000fd5b60006200056b826200043e565b915062000578836200043e565b925082820262000588816200043e565b91508282048414831517620005a257620005a16200052f565b5b5092915050565b6000620005b6826200043e565b9150620005c3836200043e565b9250828201905080821115620005de57620005dd6200052f565b5b92915050565b600081519050919050565b7f4e487b7100000000000000000000000000000000000000000000000000000000600052602260045260246000fd5b600060028204905060018216806200063757607f821691505b6020821081036200064d576200064c620005ef565b5b50919050565b60008190508160005260206000209050919050565b60006020601f8301049050919050565b600082821b905092915050565b600060088302620006b77fffffffffffffffffffffffffffffffffffffffffffffffffffffffffffffffff8262000678565b620006c3868362000678565b95508019841693508086168417925050509392505050565b6000819050919050565b60006200070662000700620006fa846200043e565b620006db565b6200043e565b9050919050565b6000819050919050565b6200072283620006e5565b6200073a62000731826200070d565b84845462000685565b825550505050565b600090565b6200075162000742565b6200075e81848462000717565b505050565b5b8181101562000786576200077a60008262000747565b60018101905062000764565b5050565b601f821115620007d5576200079f8162000653565b620007aa8462000668565b81016020851015620007ba578190505b620007d2620007c98562000668565b83018262000763565b50505b505050565b600082821c905092915050565b6000620007fa60001984600802620007da565b1980831691505092915050565b6000620008158383620007e7565b9150826002028217905092915050565b6200083082620005e4565b67ffffffffffffffff8111156200084c576200084b620001d9565b5b6200085882546200061e565b620008658282856200078a565b600060209050601f8311600181146200089d576000841562000888578287015190505b62000894858262000807565b86555062000904565b601f198416620008ad8662000653565b60005b82811015620008d757848901518255600182019150602085019450602081019050620008b0565b86831015620008f75784890151620008f3601f891682620007e7565b8355505b6001600288020188555050505b505050505050565b611141806200091c6000396000f3fe608060405234801561001057600080fd5b50600436106100a95760003560e01c80633477ee2e116100715780633477ee2e146101565780635900f8f8146101865780635f5300ff146101b657806393eaa6e8146101d4578063d06374e314610204578063eae4d9ff14610234576100a9565b806306a49fce146100ae57806309eef43e146100cc5780632672f526146100fc57806329dcb0cf1461011a5780632eb4a7ab14610138575b600080fd5b6100b6610250565b6040516100c3919061093d565b60405180910390f35b6100e660048036038101906100e191906109d1565b610329565b6040516100f39190610a19565b60405180910390f35b610104610349565b6040516101119190610a43565b60405180910390f35b61012261036d565b60405161012f9190610a77565b60405180910390f35b610140610373565b60405161014d9190610aab565b60405180910390f35b610170600480360381019061016b9190610af2565b610379565b60405161017d9190610b69565b60405180910390f35b6101a0600480360381019061019b9190610cc0565b610425565b6040516101ad9190610a77565b60405180910390f35b6101be610453565b6040516101cb9190610a77565b60405180910390f35b6101ee60048036038101906101e991906109d1565b610459565b6040516101fb9190610a19565b60405180910390f35b61021e600480360381019061021991906109d1565b6104af565b60405161022b9190610a19565b60405180910390f35b61024e60048036038101906102499190610d69565b610508565b005b60606001805480602002602001604051908101604052809291908181526020016000905b8282101561032057838290600052602060002001805461029390610e14565b80601f01602080910402602001604051908101604052809291908181526020018280546102bf90610e14565b801561030c5780601f106102e15761010080835404028352916020019161030c565b820191906000526020600020905b8154815290600101906020018083116102ef57829003601f168201915b505050505081526020019060010190610274565b50505050905090565b60056020528060005260406000206000915054906101000a900460ff1681565b60008054906101000a900473ffffffffffffffffffffffffffffffffffffffff1681565b60025481565b60035481565b6001818154811061038957600080fd5b9060005260206000200160009150905080546103a490610e14565b80601f01602080910402602001604051908101604052809291908181526020018280546103d090610e14565b801561041d5780601f106103f25761010080835404028352916020019161041d565b820191906000526020600020905b81548152906001019060200180831161040057829003601f168201915b505050505081565b6004818051602081018201805184825260208301602085012081835280955050505050506000915090505481565b60065481565b6000600560008373ffffffffffffffffffffffffffffffffffffffff1673ffffffffffffffffffffffffffffffffffffffff16815260200190815260200160002060009054906101000a900460ff169050919050565b60008060009054906101000a900473ffffffffffffffffffffffffffffffffffffffff1673ffffffffffffffffffffffffffffffffffffffff168273ffffffffffffffffffffffffffffffffffffffff16149050919050565b60025442111561054d576040517f08c379a000000000000000000000000000000000000000000000000000000000815260040161054490610e91565b60405180910390fd5b600560003373ffffffffffffffffffffffffffffffffffffffff1673ffffffffffffffffffffffffffffffffffffffff16815260200190815260200160002060009054906101000a900460ff16156105da576040517f08c379a00000000000000000000000000000000000000000000000000000000081526004016105d190610efd565b60405180910390fd5b6000336040516020016105ed9190610f65565b604051602081830303815290604052805190602001209050610653838380806020026020016040519081016040528093929190818152602001838360200280828437600081840152601f19601f820116905080830192505050505050506003548361073c565b610692576040517f08c379a000000000000000000000000000000000000000000000000000000000815260040161068990610ff2565b60405180910390fd5b6004846040516106a2919061104e565b908152602001604051809103902060008154809291906106c190611094565b91905055506001600560003373ffffffffffffffffffffffffffffffffffffffff1673ffffffffffffffffffffffffffffffffffffffff16815260200190815260200160002060006101000a81548160ff0219169083151502179055506006600081548092919061073190611094565b919050555050505050565b6000826107498584610753565b1490509392505050565b60008082905060005b845181101561079e576107898286838151811061077c5761077b6110dc565b5b60200260200101516107a9565b9150808061079690611094565b91505061075c565b508091505092915050565b60008183106107c1576107bc82846107d4565b6107cc565b6107cb83836107d4565b5b905092915050565b600082600052816020526040600020905092915050565b600081519050919050565b600082825260208201905092915050565b6000819050602082019050919050565b600081519050919050565b600082825260208201905092915050565b60005b83811015610851578082015181840152602081019050610836565b60008484015250505050565b6000601f19601f8301169050919050565b600061087982610817565b6108838185610822565b9350610893818560208601610833565b61089c8161085d565b840191505092915050565b60006108b3838361086e565b905092915050565b6000602082019050919050565b60006108d3826107eb565b6108dd81856107f6565b9350836020820285016108ef85610807565b8060005b8581101561092b578484038952815161090c85826108a7565b9450610917836108bb565b925060208a019950506001810190506108f3565b50829750879550505050505092915050565b6000602082019050818103600083015261095781846108c8565b905092915050565b6000604051905090565b600080fd5b600080fd5b600073ffffffffffffffffffffffffffffffffffffffff82169050919050565b600061099e82610973565b9050919050565b6109ae81610993565b81146109b957600080fd5b50565b6000813590506109cb816109a5565b92915050565b6000602082840312156109e7576109e6610969565b5b60006109f5848285016109bc565b91505092915050565b60008115159050919050565b610a13816109fe565b82525050565b6000602082019050610a2e6000830184610a0a565b92915050565b610a3d81610993565b82525050565b6000602082019050610a586000830184610a34565b92915050565b6000819050919050565b610a7181610a5e565b82525050565b6000602082019050610a8c6000830184610a68565b92915050565b6000819050919050565b610aa581610a92565b82525050565b6000602082019050610ac06000830184610a9c565b92915050565b610acf81610a5e565b8114610ada57600080fd5b50565b600081359050610aec81610ac6565b92915050565b600060208284031215610b0857610b07610969565b5b6000610b1684828501610add565b91505092915050565b600082825260208201905092915050565b6000610b3b82610817565b610b458185610b1f565b9350610b55818560208601610833565b610b5e8161085d565b840191505092915050565b60006020820190508181036000830152610b838184610b30565b905092915050565b600080fd5b600080fd5b7f4e487b7100000000000000000000000000000000000000000000000000000000600052604160045260246000fd5b610bcd8261085d565b810181811067ffffffffffffffff82111715610bec57610beb610b95565b5b80604052505050565b6000610bff61095f565b9050610c0b8282610bc4565b919050565b600067ffffffffffffffff821115610c2b57610c2a610b95565b5b610c348261085d565b9050602081019050919050565b82818337600083830152505050565b6000610c63610c5e84610c10565b610bf5565b905082815260208101848484011115610c7f57610c7e610b90565b5b610c8a848285610c41565b509392505050565b600082601f830112610ca757610ca6610b8b565b5b8135610cb7848260208601610c50565b91505092915050565b600060208284031215610cd657610cd5610969565b5b600082013567ffffffffffffffff811115610cf457610cf361096e565b5b610d0084828501610c92565b91505092915050565b600080fd5b600080fd5b60008083601f840112610d2957610d28610b8b565b5b8235905067ffffffffffffffff811115610d4657610d45610d09565b5b602083019150836020820283011115610d6257610d61610d0e565b5b9250929050565b600080600060408486031215610d8257610d81610969565b5b600084013567ffffffffffffffff811115610da057610d9f61096e565b5b610dac86828701610c92565b935050602084013567ffffffffffffffff811115610dcd57610dcc61096e565b5b610dd986828701610d13565b92509250509250925092565b7f4e487b7100000000000000000000000000000000000000000000000000000000600052602260045260246000fd5b60006002820490506001821680610e2c57607f821691505b602082108103610e3f57610e3e610de5565b5b50919050565b7f566f74696e6720706572696f64206973206f7665720000000000000000000000600082015250565b6000610e7b601583610b1f565b9150610e8682610e45565b602082019050919050565b60006020820190508181036000830152610eaa81610e6e565b9050919050565b7f596f75206861766520616c726561647920766f74656400000000000000000000600082015250565b6000610ee7601683610b1f565b9150610ef282610eb1565b602082019050919050565b60006020820190508181036000830152610f1681610eda565b9050919050565b60008160601b9050919050565b6000610f3582610f1d565b9050919050565b6000610f4782610f2a565b9050919050565b610f5f610f5a82610993565b610f3c565b82525050565b6000610f718284610f4e565b60148201915081905092915050565b7f496e76616c69642070726f6f663a20596f7520617265206e6f7420617574686f60008201527f72697a6564000000000000000000000000000000000000000000000000000000602082015250565b6000610fdc602583610b1f565b9150610fe782610f80565b604082019050919050565b6000602082019050818103600083015261100b81610fcf565b9050919050565b600081905092915050565b600061102882610817565b6110328185611012565b9350611042818560208601610833565b80840191505092915050565b600061105a828461101d565b915081905092915050565b7f4e487b7100000000000000000000000000000000000000000000000000000000600052601160045260246000fd5b600061109f82610a5e565b91507fffffffffffffffffffffffffffffffffffffffffffffffffffffffffffffffff82036110d1576110d0611065565b5b600182019050919050565b7f4e487b7100000000000000000000000000000000000000000000000000000000600052603260045260246000fdfea2646970667358221220b923cd98ad4145d843eebdd2bb875594b73b9541384a80d0e64d995cdcd5396664736f6c63430008140033",
  "linkReferences": {},
  "deployedLinkReferences": {}
}